:100000000C9475000C9492000C9492000C94920045
:100010000C9492000C9492000C9492000C94920018
:100020000C9492000C9492000C9492000C94920008
:100030000C9492000C94A8000C9492000C949200E2
:100040000C9492000C9492000C9492000C949200E8
:100050000C9492000C9492000C9492000C949200D8
:100060000C9492000C94920007634236B79BD8A779
:100070001A39685618AEBAAB558C1D3CB7CC5763CD
:10008000BD6DEDFD753EF6177231BF000000803F7B
:1000900008000000BE922449123EABAAAA2ABECD97
:1000A000CCCC4C3E00000080BEABAAAAAA3E000009
:1000B0000000BF000000803F000000000008417801
:1000C000D3BB4387D1133D190E3CC3BD4282AD2B38
:1000D0003E68EC8276BED98FE1A93E4C80EFFFBE30
:1000E00001C4FF7F3F000000000011241FBECFEFBE
:1000F000D8E0DEBFCDBF12E0A0E0B1E0E6E1F2E182
:1001000002C005900D92AE30B107D9F722E0AEE003
:10011000B2E001C01D92A031B207E1F70E94700366
:100120000C9409090C940000F89481E080936F000E
:10013000E1E8F0E080818260808378940895F8940B
:10014000E1E8F0E08081108288B118B878940895D1
:100150001F920F920FB60F9211248F939F93F894D2
:1001600098B188E0892788B978949F918F910F90F2
:100170000FBE0F901F901895E0ECF0E0908195FF76
:10018000FDCF8093C6000895CF93DF93EC01888163
:10019000882341F00E94BC008991833219F0888144
:1001A0008111F8CFDF91CF9108951092C5008CE0B6
:1001B0008093C400E1ECF0E0808188618083E2EC10
:1001C000F0E080818660808380E091E00E94C4003E
:1001D0000895E0ECF0E080818823ECF78091C60080
:1001E0000895EF92FF920F931F93CF93DF937C01BB
:1001F0000E94E9008701C0E0D0E006C02196F80126
:1002000081938F010E94E900282F082E000C330BE8
:10021000205331092A30310588F394ED980F92303C
:1002200068F3CE0DDF1D1882DF91CF911F910F91E2
:10023000FF90EF900895EF92FF920F931F93CF934B
:10024000DF93CDB7DEB72B970FB6F894DEBF0FBEA6
:10025000CDBF9C018B018BE0ECE1F1E0DE0111965A
:1002600001900D928A95E1F733234CF4FB0131960E
:100270008DE2DB018C9331952195310901C0FB01A1
:10028000C9010F2EFAE0EF2EF12CF02D3196B701B7
:100290000E94AC03CB010097C9F710820F2EFAE041
:1002A000EF2EF12CF02DC901B7010E94AC03A1E0A3
:1002B000B0E0AC0FBD1FA80FB91F8C918293262F01
:1002C000372F2115310579F7C8012B960FB6F89411
:1002D000DEBF0FBECDBFDF91CF911F910F91FF9079
:1002E000EF900895CF93DF9300D000D0CDB7DEB765
:1002F00020E229832A832B831C82BE016F5F7F4FFC
:100300000E941B01CE0101960E94C40088EF91E07B
:100310000E94C4000F900F900F900F90DF91CF912B
:10032000089587E291E00E94C400529A549A3A9A42
:10033000389A559A569A83EA84BD95E095BD279AD6
:1003400093E894BD93E095BD9FEF97BD8093B00077
:1003500081E08093B1000895CF93C62F009719F0E4
:10036000019769F018C085E491E00E94C4008C2FC9
:1003700090E00E9472015A9A8BB11BB810C086E6B9
:1003800091E00E94C4008C2F90E00E9472015C9A60
:100390008BB11BB804C08BB11BB88BB11BB8C8BDE7
:1003A000CF910895CF93C62F009719F0019769F068
:1003B00018C088E891E00E94C4008C2F90E00E9451
:1003C0007201429A88B118B810C08AEA91E00E947E
:1003D000C4008C2F90E00E947201409A88B118B836
:1003E00004C088B118B888B118B8C7BDCF910895B6
:1003F000CF93DF93EB0199233CF4682F619581E063
:1004000090E00E94AC0105C0682F80E090E00E945F
:10041000AC01DD233CF46C2F619581E090E00E94FB
:10042000D20105C06C2F80E090E00E94D201DF91E4
:10043000CF9108958DEC91E00E94C40080E484B9CE
:100440008CBD08958EBD0DB407FEFDCF8EB5089509
:10045000EF92FF920F931F93CF93DF937C018EE770
:100460000E942202833269F08701C0E0D0E0219629
:10047000F80181938F018EE70E9422028332B9F73F
:1004800002C0C0E0D0E0CE0DDF1D1882DF91CF9119
:100490001F910F91FF90EF900895CF93DF9300D0BD
:1004A000CDB7DEB789831A824AE050E060E070E0A1
:1004B000CE0101960E946907CB010F900F90DF914A
:1004C000CF9108952F923F924F925F926F927F92B9
:1004D0008F929F92AF92BF92CF92DF92EF92FF9254
:1004E0000F931F93CF93DF9300D000D0CDB7DEB72B
:1004F000FC0101900020E9F73197E81BF90B1F017F
:10050000DC012C912D3241F4EE24E394F12C2FEFF9
:100510003FEF3A83298306C0E12CF12CA1E0B0E043
:10052000BA83A98331E020E0B3E02B1631040CF448
:1005300030E0632E722EE214F3040CF044C06C0120
:10054000CE0CDF1C31978F010E191F09F601819126
:100550006F010E944D029C838B83B801012E000C19
:10056000880B990B0E9479049B01AC0160E070E05C
:1005700080E291E40E9472054B015C01B301770CAB
:10058000880B990B0E9479042B013C012B813C8143
:10059000B901330F880B990B0E947904A5019401CE
:1005A0000E9405059B01AC01C301B2010E94D50365
:1005B0000E9441043B013FEFE31AF30A0150110985
:1005C000E214F3041CF2A981BA816A9EC0016B9EF9
:1005D000900D7A9E900D11240F900F900F900F9018
:1005E000DF91CF911F910F91FF90EF90DF90CF900F
:1005F000BF90AF909F908F907F906F905F904F9043
:100600003F902F9008958F929F92AF92BF92CF927A
:10061000DF92EF92FF920F931F93CF93DF9300D05F
:1006200000D01F92CDB7DEB78B017C0140E050E0D7
:1006300020E030E0C12CD12CF70191917F019C3258
:10064000F9F0933251F0E1E0F0E0EC0FFD1FE20F22
:10065000F31F90832F5F3F4FEFCFE1E0F0E0EC0F0F
:10066000FD1FE20FF31F1082440F551F040F151FCB
:10067000CE0101960E946202F801918380831EC020
:10068000E1E0F0E0EC0FFD1FE20FF31F10825A01D2
:10069000FFEFAF1ABF0A440F551F4801840E951E85
:1006A000CE0101960E946202F40191838083198237
:1006B0001A821B82A5012C2D3D2DBECF0F900F90CD
:1006C0000F900F900F90DF91CF911F910F91FF909E
:1006D000EF90DF90CF90BF90AF909F908F90089554
:1006E000CF93DF93CDB7DEB764970FB6F894DEBF34
:1006F0000FBECDBF0E94D5000E9491010E941A0238
:1007000087EE91E00E94C4008E010F5F1F4F8EE7BD
:100710000E942202F80181938F018332C1F78AEF90
:1007200091E00E94C400CE0101960E94C4008AE0BC
:100730000E94BC001A8A198A1C8A1B8ABE016F5E3D
:100740007F4FCE0101960E9403036B897C898989C2
:100750009A890E94F801D4CF97FB072E16F40094D3
:1007600007D077FD09D00E94C00307FC05D03EF4F6
:10077000909581959F4F0895709561957F4F08954D
:10078000AA1BBB1B51E107C0AA1FBB1FA617B707B7
:1007900010F0A61BB70B881F991F5A95A9F78095D3
:1007A0009095BC01CD0108955058BB27AA270E94FF
:1007B000EC030C94CB040E94BD0438F00E94C404E6
:1007C00020F039F49F3F19F426F40C94BA040EF487
:1007D000E095E7FB0C94B404E92F0E94DC0458F385
:1007E000BA17620773078407950720F079F4A6F516
:1007F0000C94FE040EF4E0950B2EBA2FA02D0B01E5
:10080000B90190010C01CA01A0011124FF27591B55
:1008100099F0593F50F4503E68F11A16F040A22F5B
:10082000232F342F4427585FF3CF469537952795CC
:10083000A795F0405395C9F77EF41F16BA0B620BCB
:10084000730B840BBAF09150A1F0FF0FBB1F661F12
:10085000771F881FC2F70EC0BA0F621F731F841F55
:1008600048F4879577956795B795F7959E3F08F07B
:10087000B0CF9395880F08F09927EE0F979587953D
:1008800008950E9448046894B1110C94FF040895DF
:100890000E94E40488F09F5798F0B92F9927B75128
:1008A000B0F0E1F0660F771F881F991F1AF0BA9514
:1008B000C9F714C0B13091F00E94FE04B1E0089570
:1008C0000C94FE04672F782F8827B85F39F0B93F62
:1008D000CCF3869577956795B395D9F73EF49095C7
:1008E0008095709561957F4F8F4F9F4F0895E89445
:1008F00009C097FB3EF490958095709561957F4F68
:100900008F4F9F4F9923A9F0F92F96E9BB27939515
:10091000F695879577956795B795F111F8CFFAF425
:10092000BB0F11F460FF1BC06F5F7F4F8F4F9F4F56
:1009300016C0882311F096E911C0772321F09EE8B4
:10094000872F762F05C0662371F096E8862F70E01A
:1009500060E02AF09A95660F771F881FDAF7880FF4
:100960009695879597F9089597F99F6780E870E0C5
:1009700060E008959FEF80EC089500240A94161615
:10098000170618060906089500240A94121613067D
:10099000140605060895092E0394000C11F488230B
:1009A00052F0BB0F40F4BF2B11F460FF04C06F5F27
:1009B0007F4F8F4F9F4F089557FD9058440F551FFD
:1009C00059F05F3F71F04795880F97FB991F61F0D1
:1009D0009F3F79F087950895121613061406551F48
:1009E000F2CF4695F1DF08C0161617061806991FB4
:1009F000F1CF86957105610508940895E894BB27A9
:100A000066277727CB0197F908950E9418050C9463
:100A1000CB040E94BD0438F00E94C40420F095234A
:100A200011F00C94B4040C94BA0411240C94FF0437
:100A30000E94DC0470F3959FC1F3950F50E0551FA1
:100A4000629FF001729FBB27F00DB11D639FAA2723
:100A5000F00DB11DAA1F649F6627B00DA11D661F72
:100A6000829F2227B00DA11D621F739FB00DA11D93
:100A7000621F839FA00D611D221F749F3327A00D4D
:100A8000611D231F849F600D211D822F762F6A2FE9
:100A900011249F5750409AF0F1F088234AF0EE0F4E
:100AA000FF1FBB1F661F771F881F91505040A9F77B
:100AB0009E3F510580F00C94B4040C94FF045F3FFA
:100AC000E4F3983ED4F3869577956795B795F795B7
:100AD000E7959F5FC1F7FE2B880F911D969587952F
:100AE00097F90895FA01EE0FFF1F309621053105A1
:100AF000A1F16115710561F48038BFE39B0749F1ED
:100B000068949038810561F08038BFEF9B0741F011
:100B100099234AF5FF3FE1053105210519F1E894D4
:100B20000894E795D901AA2329F4AB2FBE2FF85FCB
:100B3000D0F310C0FF5F70F4A695E0F7F73950F0DE
:100B400019F0FF3A38F49F779F930DD00F9007FC70
:100B50009058089546F00C94BA0460E070E080E884
:100B60009FE308954FE79F775F934F933F932F93B2
:100B70000E946D062F913F914F915F910E94050554
:100B80000C94CA0529F416F00C94B4040C94FE04D9
:100B90000C94BA040E94E404A8F39638A0F707F86E
:100BA0000F92E8942BE33AEA48EB5FE70E941B05BB
:100BB0000F920F920F924DB75EB70F920E94B5063B
:100BC000E8E6F0E00E94FC054F915F91EF91FF9104
:100BD000E595EE1FFF1F49F0FE57E0684427EE0F32
:100BE000441FFA95E1F74195550B0E942F060F908F
:100BF00007FE0C9423060895DF93CF931F930F9362
:100C0000FF92EF92DF927B018C01689406C0DA2E8E
:100C1000EF010E941805FE01E894A59125913591F8
:100C200045915591A6F3EF010E94EC03FE01970157
:100C3000A801DA9469F7DF90EF90FF900F911F9170
:100C4000CF91DF9108959B01AC0160E070E080E8F6
:100C50009FE30C94E9060C94B4040C945B070E9487
:100C6000E404D8F39923C9F3940F511DA3F39150D1
:100C7000504094F059F0882332F0660F771F881F98
:100C800091505040C1F79E3F51052CF7880F911DA0
:100C90009695879597F908955F3FACF0983E9CF044
:100CA000BB27869577956795B79508F4B1609395BE
:100CB000C1F7BB0F58F711F460FFE8CF6F5F7F4FAC
:100CC0008F4F9F4FE3CF0C94FF0416F00C945B07FB
:100CD0000C94BA0468940C94B4040E94E404A8F33D
:100CE0009923C1F3AEF3DF93CF931F930F93FF923A
:100CF000C92FDD2788232AF02197660F771F881FC9
:100D0000DAF720E030E040E85FEB9FE3883920F03D
:100D1000803E38F021968F770E94D503E0E9F0E01D
:100D200004C00E94D503EDEBF0E00E94FC058B01AE
:100D3000BE01EC01FB2E6F5771097595771F880B6B
:100D4000990B0E94790428E132E741E35FE30E94B6
:100D50001805AF2D9801AE01FF900F911F91CF9113
:100D6000DF910E94EC030C94CB04FA01DC01AA0F82
:100D7000BB1F9B01AC01BF5728F422273327442710
:100D8000507820C0B75190F4AB2F0024469537958A
:100D90002795011CA395D2F3002071F0220F331F79
:100DA000441FB395DAF30ED00C94D403613071056F
:100DB000A0E88A07B94630F49B01AC016627772783
:100DC00088279078309621F02083318342835383A3
:100DD00008950E94FD060C94CB040E94C40458F0B0
:100DE0000E94BD0440F029F45F3F29F00C94B40444
:100DF00051110C94FF040C94BA040E94DC0468F3B3
:100E00009923B1F3552391F3951B550BBB27AA27C3
:100E100062177307840738F09F5F5F4F220F331FFD
:100E2000441FAA1FA9F335D00E2E3AF0E0E832D0C5
:100E300091505040E695001CCAF72BD0FE2F29D0C8
:100E4000660F771F881FBB1F261737074807AB079A
:100E5000B0E809F0BB0B802DBF01FF2793585F4F0F
:100E60003AF09E3F510578F00C94B4040C94FF04C2
:100E70005F3FE4F3983ED4F3869577956795B795F1
:100E8000F7959F5FC9F7880F911D9695879597F9FC
:100E90000895E1E0660F771F881FBB1F6217730775
:100EA0008407BA0720F0621B730B840BBA0BEE1F8A
:100EB00088F7E09508959F3F31F0915020F4879591
:100EC00077956795B795880F911D9695879597F9B2
:100ED0000895A0E0B0E0EFE6F7E00C94C3085C01F1
:100EE0006B017A016115710519F0FB019183808313
:100EF000E114F10429F0C7010297839708F0F1C0CB
:100F0000E5012196F5011081812F90E00E947A0879
:100F1000892B11F05E01F4CF1D3229F42196F501E1
:100F2000118101E007C01B3221F4E5012296F50191
:100F3000118100E0E114F10459F1F0E1EF16F10440
:100F400061F41033E1F488818F7D883569F519816A
:100F50002296026070E1E72EF12C88E0E816F10499
:100F600039F12CF4F2E0EF16F104C9F12AC08AE05D
:100F7000E816F10479F0E0E1EE16F10411F550E124
:100F8000E52EF12C812C912CA12C68E0B62E2CC0E2
:100F90001033C9F23AE0E32EF12C4CEC842E982C5D
:100FA000A82C4CE0B42E20C010E3E114F104A9F603
:100FB00098E0E92EF12C812C912CA12C20E1B22E6D
:100FC00013C060E070E080E090E897010F2C000C07
:100FD000440B550B0E94960849015A0105C0812C0B
:100FE000912CA12C80E4B82E60E020E030E0A90133
:100FF00027010F2C000C660877081E01E0EDE10FB9
:10100000EA3060F08FEB810F8A3110F4E9EC05C013
:101010008FE9810F8A3128F5E9EAE10F8E2F90E000
:101020008E159F05F4F467FD18C082169306A4067A
:10103000B50690F0C301B2010E9486089B01AC0185
:101040002E0F311D411D511D213031054105F0E8A4
:101050005F0710F461E001C06FEF2196F10110818C
:10106000CCCF802F8170C114D10471F0662329F098
:101070002197F601D183C08307C001FF19C02297D1
:10108000F601D183C08314C067FF12C0811105C06F
:101090002FEF3FEF4FEF5FE704C020E030E040E08C
:1010A00050E882E290E090930F0280930E0216C007
:1010B000882341F050954095309521953F4F4F4FF3
:1010C0005F4F0CC057FF0AC082E290E090930F027E
:1010D00080930E022FEF3FEF4FEF5FE7B901CA0198
:1010E00004C060E070E080E090E0CDB7DEB7E2E100
:1010F0000C94DF0891110C948308803219F0895008
:101100008550C8F70895992788270895DB018F93A4
:101110009F930E94B808BF91AF91A29F800D911D2F
:10112000A39F900DB29F900D11240895A1E21A2E55
:10113000AA1BBB1BFD010DC0AA1FBB1FEE1FFF1F7B
:10114000A217B307E407F50720F0A21BB30BE40BCB
:10115000F50B661F771F881F991F1A9469F7609512
:101160007095809590959B01AC01BD01CF010895CC
:101170000E94FA08A59F900DB49F900DA49F800D2A
:10118000911D112408952F923F924F925F926F927A
:101190007F928F929F92AF92BF92CF92DF92EF9207
:1011A000FF920F931F93CF93DF93CDB7DEB7CA1B88
:1011B000DB0B0FB6F894DEBF0FBECDBF09942A88B3
:1011C000398848885F846E847D848C849B84AA845B
:1011D000B984C884DF80EE80FD800C811B81AA81E8
:1011E000B981CE0FD11D0FB6F894DEBF0FBECDBFB3
:1011F000ED010895A29FB001B39FC001A39F700DA0
:10120000811D1124911DB29F700D811D1124911D0E
:061210000895F894FFCFE1
:101216002020203E3E20496E697469616C697A69B6
:101226006E672055415254202E2E2E003031323317
:10123600343536373839002020203E3E20496E6945
:101246007469616C697A696E6720776865656C7325
:10125600202E2E2E00506F776572696E67206C65A2
:10126600667420776865656C20666F727761726454
:101276002062793A2000506F776572696E67206C3C
:1012860065667420776865656C206261636B77615B
:1012960072642062793A2000506F776572696E67D2
:1012A60020726967687420776865656C20666F725E
:1012B600776172642062793A2000506F77657269AF
:1012C6006E6720726967687420776865656C20624E
:1012D60061636B776172642062793A200020202076
:1012E600203E3E20496E697469616C697A696E6751
:1012F60020736C617665000A4177616974696E676F
:10130600206D6573736167650A005265636569766A
:0E1316006564206D6573736167653A200000A1
:00000001FF
